:100000000C94BA000C94D7000C94D7000C94D70031
:100010000C94D7000C94D7000C94D7000C94D70004
:100020000C94D7000C94D7000C94D7000C94D700F4
:100030000C94D7000C94D7000C94D7000C94D700E4
:100040000C94D7000C94D7000C94D7000C94D700D4
:100050000C94D7009801B101CA01E301FB01FB0137
:10006000FB01FB01FB01FB01FB01FB01FB01FB01B0
:10007000FB01FB01FB01FB01FB01FB01FB01FB01A0
:10008000FB01FB01FB01FB01FB01FB01FB01FB0190
:10009000FB01FB019801B101CA01E3010802210241
:1000A0003A0253026B026B026B026B026B026B0231
:1000B0006B026B026B026B026B026B026B026B02D8
:1000C0006B026B026B026B026B026B026B026B02C8
:1000D0006B026B026B026B026B026B020802210265
:1000E0003A025302770279027B027D027E027E028F
:1000F0007E027E027E027E027E027E027E027E0200
:100100007E027E027E027E027E027E027E027E02EF
:100110007E027E027E027E027E027E027E027E02DF
:100120007E027E02770279027B027D028A028C02C5
:100130008E0290029102910291029102910291022B
:100140009102910291029102910291029102910217
:100150009102910291029102910291029102910207
:100160009102910291029102910291028A028C0203
:100170008E02900211241FBECFE5D8E0DEBFCDBFB6
:1001800010E0A0E6B0E0E4EFF8E002C005900D92C8
:10019000A037B107D9F720E0A0E7B0E001C01D9279
:1001A000A237B207E1F70E94D9000C9478040C94AE
:1001B00000000E94BE0280E00E94750180E690E08F
:1001C0000E9413030F2EF0E7EF2EF0E0FF2EF02D2C
:1001D00004E610E0CAE0D0E00E948201BC0180E0A9
:1001E00090E00E94630320E030E040E85EE30E947C
:1001F000C9030E943403AB01BC01509371004093CA
:1002000070004A305105B0F481E06EE00E94220394
:1002100080E20E94040380E20E940403F7018081CF
:10022000805D0E9404038FED0E94040383E40E941A
:100230000403D2CF4436510518F581E06EE00E94E8
:10024000220380E20E94040380917000909171006B
:10025000BE010E945E04862F805D0E94040380918F
:10026000700090917100BE010E945E04805D0E944A
:1002700004038FED0E94040383E40E940403ACCFC7
:100280004B39510508F0A8CF81E06EE00E942203AF
:100290008091700090917100B8010E945E04862FD9
:1002A000805D0E9404038091700090917100B801FC
:1002B0000E945E04BE010E945E04862F805D0E9443
:1002C00004038091700090917100B8010E945E0457
:1002D000BE010E945E04805D0E9404038FED0E94B7
:1002E000040383E40E94040377CF379A97B1892BE4
:1002F00087B93D983E9A3F9A3098319A329A08953C
:10030000369A08950E948001349BFECF349A84B1BE
:1003100025B190E0922B089590E0FC01E154F109A1
:10032000E432F10508F067C0E65DFF4F0C947204FB
:10033000413059F42AB381E090E002C0880F991F40
:100340006A95E2F7822B8ABB08952AB381E090E098
:1003500002C0880F991F6A95E2F7809582238ABBB5
:100360000895413059F427B381E090E002C0880F2E
:10037000991F6A95E2F7822B87BB089527B381E026
:1003800090E002C0880F991F6A95E2F7809582235A
:1003900087BB0895413059F424B381E090E002C056
:1003A000880F991F6A95E2F7822B84BB089524B3C6
:1003B00081E090E002C0880F991F6A95E2F780956E
:1003C000822384BB0895413059F421B381E090E049
:1003D00002C0880F991F6A95E2F7822B81BB0895AE
:1003E00021B381E090E002C0880F991F6A95E2F77F
:1003F0008095822381BB089590E0FC01E154F109CE
:10040000E432F10508F067C0E25BFF4F0C94720420
:10041000413059F42BB381E090E002C0880F991F5E
:100420006A95E2F7822B8BBB08952BB381E090E0B5
:1004300002C0880F991F6A95E2F7809582238BBBD3
:100440000895413059F428B381E090E002C0880F4C
:10045000991F6A95E2F7822B88BB089528B381E043
:1004600090E002C0880F991F6A95E2F78095822379
:1004700088BB0895413059F425B381E090E002C073
:10048000880F991F6A95E2F7822B85BB089525B3E3
:1004900081E090E002C0880F991F6A95E2F780958D
:1004A000822385BB0895413059F422B381E090E066
:1004B00002C0880F991F6A95E2F7822B82BB0895CC
:1004C00022B381E090E002C0880F991F6A95E2F79D
:1004D0008095822382BB089590E0FC01E154F109EC
:1004E000E432F10558F4EE58FF4F0C9472046ABBE5
:1004F000089567BB089564BB089561BB089590E0BB
:10050000FC01E154F109E432F10558F4EA56FF4FD9
:100510000C9472046BBB089568BB089565BB089585
:1005200062BB089541E060E082E40E94FC018FE933
:100530009FE00197F1F700C0000040E060E082E436
:100540000E94FC018FE99FE00197F1F700C00000D5
:100550000895CF93C82F40E061E082E40E94FC013F
:100560006C2F84E40E947F020E9492028FEC97E03D
:100570000197F1F700C00000CF9108952FEF81EEB1
:1005800094E0215080409040E1F700C000006FEF00
:1005900084E40E946C0241E060E082E40E948C01ED
:1005A00041E061E082E40E948C0141E062E082E48B
:1005B0000E948C0140E062E082E40E94FC0188E33A
:1005C0000E94A9028FEC97E00197F1F700C00000AC
:1005D0008CE00E94A9028FEC97E00197F1F700C030
:1005E000000081E00E94A9028FE19EE40197F1F7EB
:1005F00000C0000086E00E94A9028FEC97E00197FE
:10060000F1F700C000000895CF93C82F41E061E0EA
:1006100082E40E94FC016C2F84E40E947F020E940D
:100620009202CF910895CF93DF93EC0188818823C4
:1006300031F021960E94040389918111FBCFDF9153
:10064000CF9108959FEF980F923068F49FEF960F27
:10065000943148F4813019F48FE7860F02C08FEB94
:10066000860F0E94A90208950E94A80388F09F5750
:1006700098F0B92F9927B751B0F0E1F0660F771FC6
:10068000881F991F1AF0BA95C9F714C0B13091F0BC
:100690000E94C203B1E008950C94C203672F782F23
:1006A0008827B85F39F0B93FCCF386957795679581
:1006B000B395D9F73EF490958095709561957F4FED
:1006C0008F4F9F4F0895E89409C097FB3EF4909593
:1006D0008095709561957F4F8F4F9F4F9923A9F01B
:1006E000F92F96E9BB279395F695879577956795AA
:1006F000B795F111F8CFFAF4BB0F11F460FF1BC0EE
:100700006F5F7F4F8F4F9F4F16C0882311F096E980
:1007100011C0772321F09EE8872F762F05C066232E
:1007200071F096E8862F70E060E02AF09A95660FE7
:10073000771F881FDAF7880F9695879597F90895A0
:1007400057FD9058440F551F59F05F3F71F0479582
:10075000880F97FB991F61F09F3F79F08795089567
:10076000121613061406551FF2CF4695F1DF08C086
:10077000161617061806991FF1CF869571056105A3
:1007800008940895E894BB2766277727CB0197F94B
:1007900008950E94DC030C944D040E943F0438F03D
:1007A0000E94460420F0952311F00C9436040C941A
:1007B0003C0411240C94C3030E94A00370F3959F82
:1007C000C1F3950F50E0551F629FF001729FBB2748
:1007D000F00DB11D639FAA27F00DB11DAA1F649FE4
:1007E0006627B00DA11D661F829F2227B00DA11D97
:1007F000621F739FB00DA11D621F839FA00D611D1D
:10080000221F749F3327A00D611D231F849F600D3D
:10081000211D822F762F6A2F11249F5750409AF066
:10082000F1F088234AF0EE0FFF1FBB1F661F771FF2
:10083000881F91505040A9F79E3F510580F00C94BD
:1008400036040C94C3035F3FE4F3983ED4F38695DB
:1008500077956795B795F795E7959F5FC1F7FE2B5D
:10086000880F911D9695879597F9089597F99F6739
:1008700080E870E060E008959FEF80EC0895002428
:100880000A941616170618060906089500240A94F5
:1008900012161306140605060895092E0394000C7B
:1008A00011F4882352F0BB0F40F4BF2B11F460FF0A
:1008B00004C06F5F7F4F8F4F9F4F0895AA1BBB1BD4
:1008C00051E107C0AA1FBB1FA617B70710F0A61B50
:1008D000B70B881F991F5A95A9F780959095BC0171
:1008E000CD010895EE0FFF1F0590F491E02D0994BE
:0408F000F894FFCFAA
:1008F40054656D7065726174757265203D200000E9
:00000001FF
